:020000040800F2
:10000000000001204103000891030008910300084B
:10001000910300089103000891030008000000000C
:100020000000000000000000000000009103000834
:1000300091030008000000009103000891030008EC
:100040009103000891030008910300089103000840
:100050009103000891030008910300089103000830
:100060009103000891030008910300089103000820
:100070009103000891030008910300089103000810
:10008000910300089103000891030008000000009C
:1000900000000000000000000000000091030008C4
:1000A00091030008910300089103000891030008E0
:1000B00091030008910300089103000891030008D0
:1000C00091030008910300089103000891030008C0
:1000D000910300089103000891030008000000004C
:1000E000910300089103000891030008000000003C
:1000F0000000000000000000000000009103000864
:10010000000000009103000891030008910300081B
:1001100000000000000000000000000000000000DF
:10012000910300089103000891030008910300085F
:100130009103000800000000000000000000000023
:100140000000000000000000000000009103000813
:10015000910300089103000891030008910300082F
:100160009103000891030008000000000000000057
:10017000000000000000000000000000000000007F
:1001800000000000910300080000000000000000D3
:0401900091030008CF
:1001940010B5054C237833B9044B13B10448AFF3BD
:1001A40000800123237010BD000000200000000027
:1001B400DC03000808B5034B1BB103490348AFF344
:1001C400008008BD0000000004000020DC030008DB
:1001D40080B483B000AF4E4B1B6B4D4A43F0020317
:1001E40013634C4B1B684B4A43F480631360494BC5
:1001F4001B68484A43F480531360464B1B68454AC6
:1002040043F480431360434BDB68424A43F04003AA
:10021400D36000233B603F4B1B6903F00803082BAA
:1002240074D100237B6002E07B6801337B607B68D0
:1002340040F2DC529342F7DD364B1B6903F00803AE
:10024400002B63D13B6801333B603B68013B062BC9
:1002540050D801A252F823F0790200088102000864
:1002640095020008A9020008BD020008D102000896
:10027400E5020008274B00225A6148E0254B002282
:100284005A61244B5B69234A43F0200353613EE0E7
:10029400204B00225A611F4B5B691E4A43F0400306
:1002A400536134E01B4B00225A611A4B5B69194AB3
:1002B40043F0800353612AE0164B00225A61154B28
:1002C4005B69144A43F06003536120E0114B002240
:1002D4005A61104B5B690F4A43F0A003536116E067
:1002E4000C4B00225A610B4B5B690A4A43F0C00372
:1002F40053610CE0074B00225A61064B5B69054AC7
:1003040043F0E003536100233B6084E700BF82E7CE
:10031400003802400004024080B400AF064BD3F81A
:100324008830054A43F47003C2F8883000BFBD46E4
:100334005DF8047B704700BF00ED00E0DFF834D0C7
:100344000D480E490E4A002302E0D458C450043329
:10035400C4188C42F9D30B4A0B4C002301E0136000
:100364000432A242FBD3FFF7D7FF00F011F8FFF7E6
:100374002FFF704700000120000000200000002033
:10038400FC030008000000201C000020FEE7000021
:1003940070B50D4D0D4C641BA4100026A64209D166
:1003A4000B4D0C4C00F018F8641BA4100026A64258
:1003B40005D170BD55F8043B98470136EEE755F872
:1003C400043B98470136F2E7F4030008F4030008FD
:1003D400F4030008F8030008F8B500BFF8BC08BC33
:1003E4009E467047F8B500BFF8BC08BC9E467047EF
:0403F400B901000843
:0403F8009501000863
:0400000508000341AB
:00000001FF
