:020000040800F2
:100000000000012055060008A5060008A506000806
:10001000A5060008A5060008A506000800000000C7
:10002000000000000000000000000000A50600081D
:10003000A506000800000000A5060008A5060008A7
:10004000A5060008A5060008A5060008A5060008E4
:10005000A5060008A5060008C1050008F905000866
:10006000A5060008A5060008A5060008A5060008C4
:10007000A5060008A5060008A5060008A5060008B4
:10008000A5060008A506000800000000000000000A
:100090000000000000000000A5060008A5060008FA
:1000A000A5060008A5060008A5060008A506000884
:1000B000A5060008A5060008A5060008A506000874
:1000C000A5060008A5060008A5060008A506000864
:1000D000A5060008A506000800000000A506000807
:1000E000A5060008A50600080000000000000000AA
:1000F0000000000000000000A5060008000000004D
:10010000A5060008A5060008A506000800000000D6
:10011000000000000000000000000000A50600082C
:10012000A5060008A5060008A5060008A506000803
:1001300000000000000000000000000000000000BF
:100140000000000000000000A5060008A506000849
:10015000A5060008A5060008A5060008A5060008D3
:10016000A5060008000000000000000000000000DC
:10017000000000000000000000000000000000007F
:10018000A50600080000000000000000A506000809
:1001900010B5054C237833B9044B13B10448AFF3C1
:1001A00000800123237010BD5C00002000000000CF
:1001B000F006000808B5034B1BB103490348AFF331
:1001C000008008BD0000000060000020F00600086C
:1001D00080B400AF054B1B68044A43F480431360AE
:1001E00000BFBD465DF8047B704700BF4438024045
:1001F00080B483B000AF03463960FB711346BB7116
:10020000184B1B68F9793A68920001FA02F211461C
:10021000144A0B431360144B1B6801213A6801FA1E
:1002200002F21146104A0B431360104B1B68BA7957
:1002300002F001013A6801FA02F211460B4A0B433F
:1002400013600B4B1B683A680632012101FA02F277
:100250001146074A0B43136000BF0C37BD465DF8DB
:10026000047B704708380140003C01400C3C0140D1
:1002700000E100E080B483B000AF7860074B1B68FA
:1002800001217A6801FA02F21146044A0B43136015
:1002900000BF0C37BD465DF8047B70473038024024
:1002A00090B482B000AF7860084611461A46034603
:1002B000FB700B46BB7013467B7057497A68134638
:1002C0009B001344DB000B441B681968FB785B0040
:1002D000032202FA03F3DB431C464F487A681346B5
:1002E0009B001344DB0003441B6801EA04021A600C
:1002F00049497A6813469B001344DB000B441B6892
:100300001968BA78FB785B0002FA03F31C4642488E
:100310007A6813469B001344DB0003441B6841EAE0
:1003200004021A603C497A6813469B001344DB00C0
:100330000B4404331B681968FB78012202FA03F3AB
:10034000DB431C4634487A6813469B001344DB00A9
:10035000034404331B6801EA04021A602E497A68D8
:1003600013469B001344DB000B4404331B681968DD
:100370007B7803F00102FB7802FA03F31C4626485F
:100380007A6813469B001344DB00034404331B6864
:1003900041EA04021A6020497A6813469B0013441C
:1003A000DB000B440C331B681968FB785B000322ED
:1003B00002FA03F3DB431C4617487A6813469B0096
:1003C0001344DB0003440C331B6801EA04021A6087
:1003D00011497A6813469B001344DB000B440C332D
:1003E0001B6819687B785B1003F00302FB785B00E5
:1003F00002FA03F31C4608487A6813469B0013442C
:10040000DB0003440C331B6841EA04021A6000BF9E
:100410000837BD4690BC70470000002090B484B0FF
:1004200000AF78600B46FB701346BB702D497A68AD
:1004300013469B001344DB000B441B681B68FA78CF
:100440005200032101FA02F21A40FB785B0022FA03
:1004500003F3012B3DD1BB78002B1BD021497A68D7
:1004600013469B001344DB000B4414331B681968CC
:10047000FB78012202FA03F31C461A487A681346F5
:100480009B001344DB00034414331B6841EA04025D
:100490001A601BE013497A6813469B001344DB0083
:1004A0000B4414331B681968FB78012202FA03F32A
:1004B000DB431C460B487A6813469B001344DB0061
:1004C000034414331B6801EA04021A600023FB731F
:1004D00001E00123FB73FB7B18461037BD4690BC3F
:1004E000704700BF0000002080B500AFFFF770FE2E
:1004F000012200210120FFF77BFE012201210120C2
:10050000FFF776FE00F005F800F01DF800F02EF879
:10051000FCE780B582B000AF0020FFF7ABFE002300
:10052000FB7108E0F979002301220020FFF7B8FEF3
:10053000FB790133FB71FB79062BF3D900BF00BFB8
:100540000837BD4680BD80B500AF0120FFF792FEA1
:100550000223002200210120FFF7A2FE0223002235
:1005600001210120FFF79CFE00BF80BD80B582B055
:1005700000AF0023FB7117E00F4B1B781A460F4B9F
:100580009B5C1946FB79012202FA03F301EA03029C
:10059000FB7942FA03F3DAB2FB7919460020FFF740
:1005A0003DFFFB790133FB71FB79062BE4D900BFDA
:1005B00000BF0837BD4680BD7800002050000020F5
:1005C00080B400AF0A4B1B68094A43F00103136073
:1005D000084B1B78082B05D8064B1B780133DAB281
:1005E000044B1A7000BFBD465DF8047B704700BF26
:1005F000143C01407800002080B400AF0A4B1B6817
:10060000094A43F002031360084B1B78002B05D006
:10061000064B1B78013BDAB2044B1A7000BFBD4693
:100620005DF8047B704700BF143C01407800002057
:1006300080B400AF064BD3F88830054A43F470030A
:10064000C2F8883000BFBD465DF8047B704700BF2C
:1006500000ED00E0DFF834D00D480E490E4A0023CB
:1006600002E0D458C4500433C4188C42F9D30B4A66
:100670000B4C002301E013600432A242FBD3FFF7CE
:10068000D7FF00F011F8FFF72FFF7047000001209F
:10069000000000205C000020100700085C00002023
:1006A0007C000020FEE7000070B50D4D0D4C641B72
:1006B000A4100026A64209D10B4D0C4C00F018F8EE
:1006C000641BA4100026A64205D170BD55F8043B5A
:1006D00098470136EEE755F8043B98470136F2E7B4
:1006E0000807000808070008080700080C070008AA
:1006F000F8B500BFF8BC08BC9E467047F8B500BF0F
:08070000F8BC08BC9E467047DE
:04070800B50100082F
:04070C00910100084F
:100710000000024004000240080002400C000240B9
:100720001000024014000240180002401C00024069
:100730002000024024000240000402400404024061
:10074000080402400C040240100402401404024059
:10075000180402401C040240200402402404024009
:0C0760003F065B4F666D7D077F6F000059
:040000050800065594
:00000001FF
