:020000040800F2
:1000000000000120A9030008F9030008F903000813
:10001000F9030008F9030008F903000800000000D4
:10002000000000000000000000000000F9030008CC
:10003000F903000800000000F9030008F9030008B4
:10004000F9030008F9030008F9030008F9030008A0
:10005000F9030008F9030008F9030008F903000890
:10006000F9030008F9030008F9030008F903000880
:10007000F9030008F9030008F9030008F903000870
:10008000F9030008F9030008F90300080000000064
:10009000000000000000000000000000F90300085C
:1000A000F9030008F9030008F9030008F903000840
:1000B000F9030008F9030008F9030008F903000830
:1000C000F9030008F9030008F9030008F903000820
:1000D000F9030008F9030008F90300080000000014
:1000E000F9030008F9030008F90300080000000004
:1000F000000000000000000000000000F9030008FC
:1001000000000000F9030008F9030008F9030008E3
:1001100000000000000000000000000000000000DF
:10012000F9030008F9030008F9030008F9030008BF
:10013000F9030008000000000000000000000000BB
:10014000000000000000000000000000F9030008AB
:10015000F9030008F9030008F9030008F90300088F
:10016000F9030008F9030008000000000000000087
:10017000000000000000000000000000000000007F
:1001800000000000F903000800000000000000006B
:04019000F903000867
:1001940010B5054C237833B9044B13B10448AFF3BD
:1001A40000800123237010BD000000200000000027
:1001B4002808000808B5034B1BB103490348AFF3F3
:1001C400008008BD0000000004000020280800088A
:1001D40080B582B000AF012300220321422000F049
:1001E4000BF9002301220521422000F005F9002328
:1001F40001220621422000F0FFF8002301220721FA
:10020400422000F0F9F800237B6000233B600321C7
:10021400422000F089FA0346012B40F0AF8000230E
:100224007B6002E07B6801337B607B6842F2107282
:100234009342F7DD0321422000F076FA0346002BB7
:1002440040F09C803B6801333B603B68013B062BDC
:1002540000F2828001A252F823F000BF7D02000860
:100264009D020008BD020008DD020008FD0200082E
:100274001D0300083D03000800220521422000F070
:10028400E1F900220621422000F0DCF900220721D6
:10029400422000F0D7F972E001220521422000F04B
:1002A400D1F900220621422000F0CCF900220721D6
:1002B400422000F0C7F962E000220521422000F04C
:1002C400C1F901220621422000F0BCF900220721D5
:1002D400422000F0B7F952E001220521422000F04B
:1002E400B1F901220621422000F0ACF900220721D5
:1002F400422000F0A7F942E000220521422000F04C
:10030400A1F900220621422000F09CF901220721D4
:10031400422000F097F932E001220521422000F04A
:1003240091F900220621422000F08CF901220721D4
:10033400422000F087F922E000220521422000F04B
:1003440081F901220621422000F07CF901220721D3
:10035400422000F077F912E001220521422000F04A
:1003640071F901220621422000F06CF901220721D3
:10037400422000F067F900233B6048E700BF46E7EE
:1003840080B400AF064BD3F88830054A43F47003B9
:10039400C2F8883000BFBD465DF8047B704700BFDB
:1003A40000ED00E0DFF834D00D480E490E4A00237A
:1003B40002E0D458C4500433C4188C42F9D30B4A15
:1003C4000B4C002301E013600432A242FBD3FFF77D
:1003D400D7FF00F003FAFFF7FBFE7047000001208F
:1003E4000000002000000020480800080000002051
:1003F4001C000020FEE7000080B485B000AFB960A7
:100404007A603B600346FB73FB7B412B03D0422B9A
:1004140000F085800AE1884B1B6B874A43F0010397
:1004240013637B68032B00F2FE8001A252F823F0D1
:10043400450400089D040008F104000809050008AB
:100444007E4B1B68BA685200032101FA02F2D243C0
:1004540011467A4A0B4013603B68012B03D03B687A
:10046400102B0CD05AE0754BDB68BA68520001219E
:1004740001FA02F21146714A0B43D3600BE06F4B51
:10048400DB68BA685200102101FA02F211466B4A85
:100494000B43D36000BF41E0684B1B68BA6852004D
:1004A400012101FA02F21146644A0B4313603B68CE
:1004B400002B03D03B68012B0CD02FE05F4B5B6813
:1004C4000121BA6801FA02F2D24311465B4A0B4099
:1004D40053600AE0594B5B680121BA6801FA02F2E1
:1004E4001146564A0B43536000BF17E0534B1B6839
:1004F400BA685200022101FA02F211464F4A0B4334
:1005040013600BE04D4B1B68BA685200032101FADB
:1005140002F21146494A0B43136000BF83E0464B85
:100524001B6B454A43F0020313637B68032B7CD89F
:1005340001A252F823F000BF4D050008A5050008EC
:10054400F9050008110600083D4B1B68BA68520003
:10055400032101FA02F2D2431146394A0B401360D7
:100564003B68012B03D03B68102B0CD05AE0344B72
:10057400DB68BA685200012101FA02F21146304ADE
:100584000B43D3600BE02E4BDB68BA68520010219A
:1005940001FA02F211462A4A0B43D36000BF41E03C
:1005A400274B1B68BA685200012101FA02F2114676
:1005B400234A0B4313603B68002B03D03B68012B99
:1005C4000CD02FE01E4B5B680121BA6801FA02F2DD
:1005D400D24311461A4A0B4053600AE0184B5B6839
:1005E4000121BA6801FA02F21146154A0B4353601D
:1005F40000BF17E0124B1B68BA685200022101FACF
:1006040002F211460E4A0B4313600BE00C4B1B68BD
:10061400BA685200032101FA02F21146084A0B4358
:10062400136000BF01E000BF00E000BF00BF14374B
:10063400BD465DF8047B704700380240000002406C
:100644000004024080B487B000AF0346B9607A600A
:10065400FB73FB7B412B02D0422B2DD059E0304B56
:100664001B68BA685200032101FA02F21A40BB68FF
:100674005B0022FA03F3012B1BD17B68002B0AD009
:10068400274B5B690121BA6801FA02F21146244A38
:100694000B4353610AE0224B5B690121BA6801FAFA
:1006A40002F2D24311461E4A0B4053610023FB75EC
:1006B4002FE00123FB752CE01A4B1B68BA6852002B
:1006C400012101FA02F21A40BB685B0022FA03F32B
:1006D400012B1BD17B68002B0AD0124B5B690121D3
:1006E400BA6801FA02F211460E4A0B4353610AE05A
:1006F4000C4B5B690121BA6801FA02F2D24311463C
:10070400084A0B4053610023FB7501E00123FB758C
:1007140000BFFB7D18461C37BD465DF8047B70475F
:10072400000002400004024080B485B000AF0346DC
:100734003960FB71FB79412B02D0422B20D042E07F
:10074400244B1B683A685200012101FA02F21A4054
:100754003B685B0022FA03F3002B31D11D4B1B696C
:1007640001213A6801FA02F21A403B6822FA03F3C3
:10077400012B02D10123FB7322E00023FB731FE052
:10078400154B1B683A685200012101FA02F21A4023
:100794003B685B0022FA03F3002B13D10E4B1B6959
:1007A40001213A6801FA02F21A403B6822FA03F383
:1007B400012B02D10123FB7304E00023FB7301E04E
:1007C40000BF00E000BFFB7B18461437BD465DF850
:1007D400047B7047000002400004024070B50D4DD8
:1007E4000D4C641BA4100026A64209D10B4D0C4CE1
:1007F40000F018F8641BA4100026A64205D170BDB1
:1008040055F8043B98470136EEE755F8043B984702
:100814000136F2E7400800084008000840080008D4
:1008240044080008F8B500BFF8BC08BC9E467047F1
:0C083400F8B500BFF8BC08BC9E46704739
:04084000B9010008F2
:040844009501000812
:04000005080003A943
:00000001FF
